:020000040800F2
:10000000109F0020DD010008350F0008370F0008A1
:10001000390F00083B0F00083D0F000800000000EA
:100020000000000000000000000000004501000882
:100030003F0F00080000000089010008410F000880
:10004000F7010008F7010008F7010008F7010008B0
:10005000F7010008F7010008F7010008F7010008A0
:10006000F7010008F7010008F7010008F701000890
:10007000F7010008F7010008F7010008F701000880
:10008000F7010008F7010008F7010008F701000870
:10009000F7010008F7010008F7010008F701000860
:1000A000F7010008F7010008F7010008F701000850
:1000B000F7010008F7010008F7010008F701000840
:1000C000F7010008F7010008F7010008F701000830
:1000D000F7010008F7010008F7010008F701000820
:1000E000F7010008F7010008F7010008F701000810
:1000F000F7010008F7010008F7010008F701000800
:10010000F7010008F7010008F7010008F7010008EF
:10011000F7010008F7010008F7010008F7010008DF
:10012000F7010008F7010008F7010008F7010008CF
:10013000DFF80CD003F0B6F800480047250E0008A1
:10014000109F0020224B19680868B0E8F00F80F378
:100150000988BFF36F8F4FF0000080F311884EF0D5
:100160000D0E70470000000006480068006880F32C
:10017000088862B661B6BFF34F8FBFF36F8F00DFA1
:1001800000BF00BF08ED00E0EFF30980BFF36F8F01
:100190000F4B1A6820E9F00F106008B54FF05000BF
:1001A00080F31188BFF34F8FBFF36F8F02F071F9A7
:1001B0004FF0000080F31188BDE808401968086816
:1001C000B0E8F00F80F30988BFF36F8F704700BF6E
:1001D00078070020EFF3058070470000064880474D
:1001E00006480047FEE7FEE7FEE7FEE7FEE7FEE71C
:1001F000FEE7FEE7FEE7FEE7A10200083101000886
:100200000CB500224C4800920192016841F4803103
:1002100001604FF4A063016801F40031019100997D
:10022000491C0091019911B900999942F3D10168D3
:10023000890333D50121019140490A6842F0100237
:100240000A600A6822F003020A600A6842F00202A9
:100250000A604168416041684160416841F48061E1
:100260004160416821F47C114160416841F4E8112A
:100270004160016841F08071016001688901FCD52D
:10028000416821F003014160416841F00201416091
:100290004168C1F381010229FAD10CBD01920CBD64
:1002A000254810B5016841F0010101604168244A08
:1002B000114041600168234A11400160016821F446
:1002C00080210160416821F4FE0141604FF41F016B
:1002D0008160FFF795FF1C494FF00060086010BD7A
:1002E000154A10B55068194B10F00C01184803D08E
:1002F000042901D0082901D0036012E05168536835
:1003000001F470114FF0020413F4803F04EB9141AB
:1003100002D053689B0301D50E4B00E00B4B5943B1
:10032000016051680A4AC1F30311121D515C026851
:10033000CA40026010BD00000010024000200240D0
:100340000000FFF8FFFFF6FE08ED00E000127A0063
:100350000000002000093D002849084328490860A2
:10036000704730B50F23C27801780125F2B1244AD5
:10037000126801F1E02102F4E062C2F5E062120AC3
:10038000C2F10404D3404278A24084781C40144354
:10039000220181F80024007800F01F018D404009FF
:1003A000800000F1E020C0F8005130BD01F01F00D6
:1003B00085404809800000F1E020C0F8805130BD40
:1003C000104A114001430E48001F016070470C4A5B
:1003D000121D0029116801D0014300E08143116022
:1003E00070474FF0E0210428086903D020F0040092
:1003F0000861704740F00400FAE700000000FA05C9
:100400000CED00E080FFFF1F8F4910B5884206D138
:100410000121042000F049FA002104203BE08B492F
:10042000884206D10121082000F03FFA002108206F
:1004300031E08749884206D10121102000F035FAC9
:100440000021102027E08349884206D10121202085
:1004500000F02BFA002120201DE07F49884206D1C0
:100460000121402000F021FA0021402013E07B49C7
:10047000884206D10121802000F017FA0021802057
:1004800009E0774988420AD184150121204600F00D
:100490000CFA00212046BDE8104000F006BA10BD5D
:1004A00010B50121084600F000FA0021BDE8104017
:1004B000012000F0FAB9F0B5CC78002204F00F0367
:1004C000E40601D58C7823430C784FF00F0C14F020
:1004D000FF0F4FF0010E1BD005680E880EFA02F4D4
:1004E0002640A64210D196000CFA06F725EA070727
:1004F00003FA06F5CE783D43282E02D0482E02D0CE
:1005000002E0446100E00461521C082AE5D3056062
:100510000A88FF2A1CD94468002202F108060EFA54
:1005200006F50E882E40AE420ED196000CFA06F764
:10053000BC4303FA06F7CE783C43282E00D1456130
:10054000CE78482E00D10561521C082AE5D34460BC
:10055000F0BD4FF6FF710180022181700421C1704E
:1005600070470246002092680A4200D0012070477E
:10057000806880B2704702460020D2680A4200D0EC
:1005800001207047C06880B27047016170474161C7
:1005900070470AB10161704741617047C16070479F
:1005A00041F4803282618161826181698069704732
:1005B0002C4B10B51A684FF68074224042EA0010A6
:1005C0000843186010BD2849C8617047F0B5254C34
:1005D000002801DAE36900E06368450D2E0185B269
:1005E000C0F30157B540C0F30342032F05D0C60244
:1005F0000AD503269640B34307E023F07062636890
:1006000023F07063636002E0AB4343F0706201B1BA
:100610002A43002801DAE261F0BD6260F0BD10B546
:100620008A0721F003040F49120F21440F238C681D
:1006300093409C438C608B68904003438B6010BD5B
:100640000949C1F8DC00704700080140000C014076
:10065000001001400014014000180140001C01403E
:10066000002001400000014000002042A548016830
:1006700041F0010101604168A34A114041600168F5
:10068000A24A11400160016821F4802101604168A3
:1006900021F4FE0141604FF41F01816070479949C8
:1006A0000A6822F480320A600A6822F480220A6012
:1006B000B0F5803F07D0B0F5802F03D1086840F433
:1006C000A02008607047086840F48030F9E70346CE
:1006D000002059098B4A01290AD002290AD0516AFF
:1006E00003F01F02012393400B4200D0012070470A
:1006F0001168F5E7116AF3E718B500204FF4A0641C
:1007000000903120FFF7E3FF0099491C0091A142BE
:1007100001D00028F5D03120FFF7D9FF002800D004
:10072000012018BD774A116821F0F80141EAC000A4
:1007300010607047764908607047724B5A680843EA
:1007400022F47C1210435860704771490866704764
:100750006C4A516821F003010143516070476948B8
:10076000406800F00C007047664A516821F0F001C3
:10077000014351607047634A516821F4E0610143CD
:10078000516070475F4A516821F4605141EAC000EE
:10079000506070475B4A0029517A01D0014300E064
:1007A0008143517270475A49C1F8D8007047554A81
:1007B000516821F440410143516070475149002282
:1007C00081F8202081F82020012802D0042802D1BD
:1007D000052081F8200070474E490860704749495C
:1007E0000A6A02430A6270474A49443908607047FE
:1007F00030B5444A5168484B11F00C0103D004292C
:1008000001D0082901D0036012E05168536801F457
:1008100070114FF0020413F4803F04EB914102D0B9
:1008200053689B0301D53D4B00E03B4B59430160AE
:1008300051680F2303EA1111394B5C5C0168E140F8
:1008400041605468072505EA14241C5D21FA04F46C
:100850008460546805EAD4241B5DD940C1605268A5
:10086000032303EA92322E4B1B1F9A5CB1FBF2F179
:10087000016130BD234A0029516901D0014300E0E4
:100880008143516170471F4A0029916901D001439A
:1008900000E08143916170471A4A0029D16901D073
:1008A000014300E08143D1617047164A0029D168B5
:1008B00001D0014300E08143D1607047114A002913
:1008C000116901D0014300E0814311617047114972
:1008D0004039086070470E49C86470470949C871BB
:1008E00070470848416A41F0807141627047054A8B
:1008F0000146002092680A4200D001207047014959
:1009000088727047001002400000FFF8FFFFF6FEFB
:10091000000042428004424200127A0000093D0079
:1009200018000020C44910B588420AD101218C0367
:100930002046FFF7BAFF2046BDE810400021FFF730
:10094000B4BFBE49884202D101214C0410E0BC4929
:10095000884202D101218C040AE0BA49884202D1BE
:100960000121CC0404E0B84988420AD101210C05D8
:100970002046FFF7A3FF2046BDE810400021FFF707
:100980009DBF10BD30B50446008A85B00D464CF6BB
:10099000FF710840E98801432182A0894EF6F311D6
:1009A0000840A9882A8911436A8902431143A18119
:1009B000A08A4FF6FF410840A9890143A1826846F9
:1009C000FFF716FF9C48844201D1039800E002988B
:1009D000A189090400EBC00101EB0010296801D5D1
:1009E000490000E08900B0FBF1F06422B0FBF2F1B5
:1009F00009010B096FF018056B4300EB8300A38915
:100A00001D044FF0320306D503EBC000B0FBF2F03B
:100A100000F0070005E003EB0010B0FBF2F000F07F
:100A20000F000843208105B030BD4FF4165101601E
:100A300000218180C18001810C2242818181704727
:100A400010B5028A4FF2FF031A400B884C882343EB
:100A50008C88C9880C4323431343038210BD0021B3
:100A6000018041808180C18070470029818902D046
:100A700041F4005101E021F400518181704710B52B
:100A8000C1F3421301F01F040121A140012B07D043
:100A9000022B07D01430002A026805D00A4304E074
:100AA0000C30F8E71030F6E78A43026010BD002AE8
:100AB000828A01D00A4300E08A4382827047028A18
:100AC00022F00F020282028A0A4302827047828960
:100AD00022F40062828182890A4382817047002960
:100AE000818902D041F0020101E021F002018181FF
:100AF0007047028A22F020020282028A0A4302829E
:100B000070470029018A02D041F4804101E021F4BC
:100B1000804101827047C1F308018180704780885D
:100B2000C0F308007047818941F00101818170475D
:100B3000028BD2B20283028B42EA01210183704709
:100B4000028B02F47F420283028B0A4302837047C6
:100B50000029818A02D041F0200101E021F020012A
:100B6000818270470029818A02D041F0100101E0A2
:100B700021F01001818270470029818A02D041F062
:100B8000080101E021F00801818270470029818974
:100B900002D041F4004101E0C1F30E0181817047B0
:100BA0000029818A02D041F4006101E021F4006152
:100BB00081827047828A22F004028282828A0A43FA
:100BC000828270470029818A02D041F0020101E04F
:100BD00021F00201818270470246002012880A42F9
:100BE00000D001207047C9430180704770B501F003
:100BF0001F0501260024C1F3421306FA05F2012B5A
:100C00000FD0022B0FD0838A4FEA112100881342A4
:100C100006FA01F600EA060001D000B101242046E0
:100C200070BD8389F0E7038AEEE70A0A012191404B
:100C3000C943018070470000003801400044004073
:100C400000480040004C00400050004008B58B4E6A
:100C50008B4D02213046FFF784FC88BB022000F058
:100C6000B0FC02213046FFF77CFC48BB85480023DE
:100C70001A461946C06800F0D6FD04002ED000F0D8
:100C8000D6FA814A0221002000F091FB012000F0F9
:100C900098FC00F0CCFA7D4A0221002000F087FB8E
:100CA00006200090012322460421602000F013FB5F
:100CB000042C06D0032C06D0022C07D0012C07D020
:100CC00013E0082000E0102028600EE02020FBE761
:100CD0006B4840211438FFF75AFC06E000F0A7FAF1
:100CE0006A4A0221002000F062FB142001F009FB97
:100CF000AFE7634D08B5614E2D1F01213046FFF768
:100D000030FC78BB022000F05CFC01213046FFF78C
:100D100028FC38BB5B4800231A461946C06800F01F
:100D2000F4FE040044D000F082FA0021584A08463C
:100D300000F03DFB574A0421002000F038FB06205C
:100D40000146009001232246002000F0C4FA012051
:100D500000F037FC042C06D0032C0FD0022C16D048
:100D6000012C18D006E000F062FA082009E000200B
:100D700000F01DFB142001F0C4FABEE700F057FAA2
:100D800010202860012000F01CFC404A0EE000F01A
:100D90004EFA2020F5E700F04AFA3948402114388D
:100DA000FFF7F3FB012000F00CFC3B4A0421DEE7D7
:100DB00000F03DFA384A0221D9E77CB502F0C0F9CB
:100DC0000421084600F0B2FC2E4CE06010B133A0C4
:100DD00002F0AAFA2B490220091D0502CDE9000103
:100DE00000232A4637A13A4801F0C5F8012802D16C
:100DF00038A002F099FA234903200831CDE9000117
:100E000000232A463AA13D4801F0B5F8012802D155
:100E10003BA002F089FA206801F0D8F8BDE87C40D8
:100E200002F0A8B91CB54FF44070FFF795FA00F036
:100E300091F800F071F900F0C3F800F002FB00F047
:100E4000F6F9104A00211032084600F0B0FA334A91
:100E50000421002000F0ABFA0A490120CDE900018D
:100E6000420200232EA1324801F085F8012802D069
:100E70004FF0FF301CBD01F024FCFEE700100140E4
:100E800014140140280000203805002038060020F6
:100E9000380200203803002038040020436F756EAC
:100EA0007453656D5F48616E646C65BCC6CAFDD0E5
:100EB000C5BAC5C1BFB4B4BDA8B3C9B9A6210D0A8E
:100EC0000000000054616B655F5461736B000000AB
:100ED000F30C0008B4B4BDA854616B655F54617332
:100EE0006BC8CECEF1B3C9B9A6210D0A000000002F
:100EF000476976655F5461736B0000004D0C000814
:100F0000B4B4BDA8476976655F5461736BC8CECE33
:100F1000F1B3C9B9A6210A0A000000003801002077
:100F20004170705461736B437265617465000000B9
:100F3000BB0D00087047FEE7FEE7FEE7FEE77047DF
:100F400010B501F01AFD012803D0BDE8104002F0F1
:100F500022B910BD38B501212020FFF794FC0820EC
:100F6000ADF8000010248DF803400320134D8DF8D8
:100F7000020069462846FFF79EFAADF80040694630
:100F80002846FFF798FA2021ADF800106946284658
:100F9000FFF791FA4020ADF8000069462846FFF7B8
:100FA0008AFA08212846FFF7F2FA10212846FFF7AF
:100FB000EEFA20212846FFF7EAFA38BD0014014076
:100FC00010B586B001210420FFF75DFC01218803E4
:100FD000FFF759FC4FF40070ADF8100018208DF8A1
:100FE000130003204A4C8DF8120004A92046FFF795
:100FF00062FA2115ADF8101004218DF8131004A920
:101000002046FFF758FA4FF4E13000900020ADF889
:101010000400ADF80600ADF80800ADF80C000C2097
:101020003C4CADF80A0069462046FFF7ABFC0121B5
:101030002046FFF71AFD06B010BD10B50446FFF7B5
:101040006AFD80212046FFF7C7FD0028F9D010BDBA
:101050002DE9F04115460E460746002405E0315DB6
:101060003846FFF7EAFF641CE4B2AC42F7D34021F4
:101070003846FFF7B1FD0028F9D0BDE8F08170B522
:101080000D46064600243046295DFFF7D6FF641C56
:10109000285D0028F7D140213046FFF79DFD00284C
:1010A000F9D070BD70B50446080ACDB2014620469D
:1010B000FFF731FD80212046FFF78EFD0028F9D093
:1010C00029462046FFF727FD80212046FFF784FDB3
:1010D0000028F9D070BD70B50E4D0446C1B2284647
:1010E000FFF719FD80212846FFF776FD0028F9D08B
:1010F000204670BD10B5074C20212046FFF76CFD3F
:101100000028F9D02046BDE81040FFF708BD0000D8
:10111000000801400038014038B501211020FFF7D8
:10112000B2FB0120ADF80000114D04248DF80340FE
:1011300069462846FFF7BFF90221ADF800108DF887
:10114000034069462846FFF7B6F938BD70B50C462E
:101150000546FFF706FA012801D0002070BD2146A0
:101160002846FFF7FEF90128F9D0012070BD0000E4
:101170000010014070B5FF4E054600294FF02001D8
:10118000304602D0FFF701FA01E0FFF700FA002431
:1011900004213046FFF7FBF928064FF008013046DE
:1011A00002D5FFF7F2F901E0FFF7F1F9042130462B
:1011B000FFF7EBF96806641C050EE4B2082CE7D3D0
:1011C0003046BDE870402021FFF7DFB910B5044676
:1011D000B031C8B20021FFF7CDFF102040EA141053
:1011E0000021FFF7C7FF04F00F00BDE8104040F0FA
:1011F00001000021BEE710B500218D20FFF7BAFFE6
:1012000000211420FFF7B6FF0021BDE81040AF20F9
:10121000B0E710B500218D20FFF7ACFF00211020B2
:10122000FFF7A8FF0021BDE81040AE20A2E770B58F
:10123000002505F1B000C0B20021FFF79BFF00219F
:101240000846FFF797FF00211020FFF793FF0024C7
:1012500001210020FFF78EFF641CE4B2802CF7D33D
:101260006D1CEDB2082DE4D370BD2DE9F041203A9C
:1012700000240F468046D5B27F2803D900208F1C5A
:101280008046FFB23946FFF7A1FFBB4E04EB0510C5
:101290000121305CFFF76EFF641CE4B2082CF5D32B
:1012A0007F1CF9B24046FFF791FF002404EB0510C4
:1012B00030440121007AFFF75DFF641CE4B2082C82
:1012C000F4D3BDE8F0810346012000E05843491EF5
:1012D000C9B2FBD270472DE9F04780460027089835
:1012E0001D4691468A463C46460821E0281B401E82
:1012F000C1B20A20FFF7E7FFB9FBF0F00A21B0FB0B
:10130000F1F201FB120027B9691E8C4201DA30B1FB
:1013100001273030C2B206FB0480C0B203E006FBF6
:101320000480C0B220225146FFF79FFF641CE4B244
:10133000AC42DBD3BDE8F0872DE9F04117460E46FD
:10134000044600250CE031462046FFF78EFF0834A6
:10135000E4B2782C02D90024B61CF6B26D1CEDB2B2
:101360007A5D002AEFD1ACE72DE9F04115460E4633
:101370000746FFF72BFF8148002400EB45150121AC
:10138000285DFFF7F7FE641CE4B2102CF7D3761C3F
:10139000F1B23846FFF71AFF002428190121007C1A
:1013A000FFF7E8FE641CE4B2102CF6D389E72DE9C0
:1013B000F0479046894600252807070E49463846DB
:1013C000FFF704FF002408EB45160121305DFFF70D
:1013D000D1FE641CE4B2102CF7D309F10100C1B2B4
:1013E0003846FFF7F3FE002430190121007CFFF797
:1013F000C1FE641CE4B2102CF6D36D1CEDB2082DB6
:10140000DAD397E72DE9F0471F4690460E4682460D
:101410000025DDF8209011E031465046FFF7D6FE5A
:10142000544607E019F8050001216D1CFFF7A2FEE4
:10143000641CE4B24445F5D3761CF6B2BE42EBD34D
:1014400078E738B501214FF4B070FFF71CFA3C2063
:10145000ADF8000010208DF803000320454C8DF8F6
:10146000020069462046FFF726F83C212046FFF798
:101470008CF810212046FFF788F8642000F096F8D9
:1014800010212046FFF783F8642000F08FF8102128
:101490002046FFF77AF80021AE20FFF76BFE00210F
:1014A0000846FFF767FE00211020FFF763FE0021CA
:1014B0004020FFF75FFE00218120FFF75BFE002147
:1014C000CF20FFF757FE0021A120FFF753FE002198
:1014D000C820FFF74FFE0021A620FFF74BFE00219A
:1014E000A820FFF747FE00213F20FFF743FE002121
:1014F000D320FFF73FFE00210846FFF73BFE002107
:10150000D520FFF737FE00218020FFF733FE0021B2
:10151000D920FFF72FFE0021F120FFF72BFE00213D
:10152000DA20FFF727FE00211220FFF723FE00211B
:10153000DB20FFF71FFE00214020FFF71BFE0021EC
:101540002020FFF717FE00210220FFF713FE0021E5
:101550008D20FFF70FFE00211420FFF70BFE002166
:10156000A420FFF707FE0021A620FFF703FE0021BD
:10157000AF2005E000180140203500085807002082
:10158000FFF7F8FD0021AF20FFF7F4FDFFF74FFE56
:1015900000210846FFF71AFE38BD03E00A21491E64
:1015A00089B2FCD2401E80B2F8D2704742F6E063A6
:1015B00003E01946491E89B2FCD2401E80B2F8D21F
:1015C000704770B5054600244FF47A7604E0304643
:1015D000FFF7ECFF641CA4B2AC42F8D370BD00F17D
:1015E00008014FF0FF32C0E90112C1600161002122
:1015F0000160704700210161704742684A6093684A
:101600008B6093685960916008610168491C0160B2
:10161000704730B50C68621C02D000F1080202E08D
:10162000026904E01A4653681D68A542FAD9536856
:101630004B6099608A60516008610168491C0160D3
:1016400030BDD0E9013201699A60D0E901235A60C6
:101650004A68824201D182684A60002202610868B9
:10166000401E08607047000070B50D46040005D1AB
:1016700040F21B12F7A1FEA001F056FE01F060FD42
:10168000D4E90F20216802FB001161600021A163F1
:101690002168A1600A46D4E90F01401E00FB012128
:1016A000E16021464FF0FF3001F8440F487004F12B
:1016B00010004DB1FFF793FF04F12400FFF78FFFF7
:1016C00001F058FD012070BD21690029F8D001F01A
:1016D0009EF80028F4D0EA494FF080500860BFF32C
:1016E0004F8FBFF36F8FEBE770B50E46050005D146
:1016F0004FF4C472D7A1DEA001F016FE96B105FB2F
:1017000006F0483001F0C6FB040009D004F148019E
:1017100020464EB10160C0E90F560121FFF7A4FF3A
:10172000204670BD0020ECE70060F4E770B50C4681
:10173000050005D140F2BD22C6A1CDA001F0F4FD07
:10174000AC4205D940F2BE22C2A1C9A001F0ECFD15
:10175000022200212846FFF7C7FF002800D084633B
:1017600070BD2DE9F041044601F0EAFC94F94550C2
:1017700004F1240609E0606A48B1304601F047F8F8
:1017800008B101F0F6F86D1E6DB2002DF3DC4FF0DC
:10179000FF3684F8456001F0EDFC01F0D1FC94F9CE
:1017A000445004F1100709E0206948B1384601F0BF
:1017B0002EF808B101F0DDF86D1E6DB2002DF3DCDE
:1017C00084F84460BDE8F04101F0D4BC2DE9F0415B
:1017D000856B164604460027026CFAB17EB1E068BC
:1017E00001F038FDE168206C091AE160226891423D
:1017F00002D26168081AE060022E0DD00EE0A068E7
:1018000001F028FD216CA0680844A060616888424E
:1018100004D32068A06001E005B16D1E6D1CA563B6
:101820003846BDE8F0812DE9FF4F83B01F468B4657
:1018300004004FF0000605D140F2D92285A18CA00A
:1018400001F072FDBBF1000F07D1206C28B140F20E
:10185000DA2280A186A001F067FD022F08D1E06B9B
:10186000012805D040F2DB227AA181A001F05CFDC5
:1018700001F083F838B9059828B140F2DE2275A14D
:101880007BA001F051FD4FF0000A4FF08058DFF8C7
:10189000F09101F055FCA06BE16B884205D3022F5B
:1018A00003D00598C8B1DEB11EE03A46594620463D
:1018B000FFF78CFF616A19B104F1240000F0A7FF63
:1018C00028B1C9F80080BFF34F8FBFF36F8F01F0CD
:1018D00051FCA06B07B0BDE8F08F01F04BFC21E09C
:1018E000684601F002F8012601F044FC00F0A6FC75
:1018F00001F026FC94F94400401C01D184F844A076
:1019000094F94500401C01D184F845A001F032FC57
:1019100005A9684600F0FAFF30B12046FFF721FF25
:1019200000F0FEFB0020D5E701F00AFCA06BE16BA4
:10193000884201D1012500E0002501F01BFC95B192
:1019400004F11000059900F024FF2046FFF709FF7D
:1019500000F0E6FB00289CD1C9F80080BFF34F8F50
:10196000BFF36F8F95E72046FFF7FBFE00F0D8FB33
:101970008FE72DE9F0471F4690468946040005D1C0
:1019800040F29F3233A13AA001F0CEFCB9F1000F32
:1019900007D1206C28B14FF468722EA134A001F059
:1019A000C3FC022F08D1E06B012805D040F2A13220
:1019B00028A12FA001F0B8FC01F001FC5020EFF3AA
:1019C000118680F31188BFF34F8FBFF36F8FA06B29
:1019D000E16B884206D3022F04D0002086F31188E1
:1019E000BDE8F08794F945503A4649462046FFF74E
:1019F000EDFE681C04D06D1C84F845500120EDE715
:101A0000606A0028FAD004F1240000F000FF0028EA
:101A1000F4D0B8F1000FF1D00121C8F80010EDE7C3
:101A200070B50E46040005D140F23C4209A110A059
:101A300001F07AFC206C28B14FF4886205A10CA05B
:101A400001F072FC206808BB6068F8B140F24542C2
:101A500000A117E02E2E5C2E2E5C46726565525456
:101A60004F535C7372635C71756575652E6300001E
:101A70004572726F723A25732C25640D0A000000BE
:101A800004ED00E0AFF2180001F04EFC01F097FB0E
:101A90005020EFF3118580F31188BFF34F8FBFF310
:101AA0006F8FA16BE06B884218D994F94500491CEF
:101AB000A163411C04D0401C84F8450001200EE0C5
:101AC000606A0028FAD004F1240000F0A0FE00288B
:101AD000F4D0002EF2D001203060EFE7002085F333
:101AE000118870BD30B4026C0B46002A0BD0C1685F
:101AF0001144C1604468A14201D30168C16030BC97
:101B0000184601F0A7BB30BC70472DE9FF4F83B0EA
:101B10009B468A4604004FF0000607D140F2DC42A3
:101B2000AFF2D001AFF2B80001F0FEFBBAF1000F46
:101B300009D1206C38B140F2DD42AFF2E801AFF2DA
:101B4000D00001F0F1FB00F018FF48B9059838B15A
:101B50004FF49C62AFF20411AFF2EC0001F0E4FB31
:101B60004FF000094FF08057DFF8448301F0E8FAA6
:101B7000A56B0DB351462046E668FFF7B3FFBBF1F6
:101B8000000F11D0E660606A50B104F1240000F04B
:101B90003EFE28B1C8F80070BFF34F8FBFF36F8FC0
:101BA00001F0E8FA284695E6681EA063206900283F
:101BB000F6D004F11000EAE7059808B11EB106E07E
:101BC00001F0D8FA27E0684600F08FFE012601F008
:101BD000D1FA00F033FB01F0B3FA94F94400401C51
:101BE00001D184F8449094F94500401C01D184F857
:101BF000459001F0BFFA05A9684600F087FE00286D
:101C000020460AD0FFF7ADFD00F08AFA204600F02A
:101C100041F90028AAD000205CE600F03BF990B121
:101C200004F12400059900F0B4FD2046FFF799FD6A
:101C300000F076FA002899D1C8F80070BFF34F8FF2
:101C4000BFF36F8F92E72046FFF78BFD00F068FA35
:101C50008CE72DE9F04790468946040007D14FF400
:101C6000B462AFF21021AFF2F81001F05DFBB9F1F0
:101C7000000F09D1206C38B140F2A152AFF22C21F3
:101C8000AFF2142001F050FB01F099FA5020EFF36D
:101C9000118780F31188BFF34F8FBFF36F8FA66B4F
:101CA000F6B194F9445049462046FFF71BFF761ED3
:101CB000A663681C04D06D1C84F84450012010E019
:101CC00020690028FAD004F1100000F0A0FD0028DF
:101CD000F4D0B8F1000FF1D00121C8F80010EDE701
:101CE000002087F311887BE62DE9F0410E460400C1
:101CF00007D140F2FC52AFF2A421AFF28C2001F0E8
:101D000013FB4EB9206C48B140F2FD52AFF2BC213A
:101D1000AFF2A42001F008FB206C38B940F2FE526B
:101D2000AFF2D021AFF2B82001F0FEFA01F047FA8D
:101D30005020EFF3118580F31188BFF34F8FBFF36D
:101D40006F8FA06B30B131462046E768FFF7CAFEBF
:101D50000120E76085F3118863E510B5040007D121
:101D600040F22F62AFF21431AFF2FC2001F0DCFA46
:101D700001F0E6F9A46B01F0FDF9204610BD10B5A5
:101D8000040007D140F24162AFF23831AFF22030A7
:101D900001F0CAFA01F0D4F9D4E90E10441A01F0A6
:101DA000E9F9204610BD10B5040007D140F2516298
:101DB000AFF26031AFF2483001F0B6FAA06B10BD5F
:101DC0003C4A002102EBC1035B68834206D100203C
:101DD00042F8310002EBC10148607047491C0A29F2
:101DE000F0D3704710B5040007D140F25D62AFF246
:101DF0009C31AFF2843001F097FA2046FFF7E0FF04
:101E00002046BDE8104001F0B0B810B5040007D17D
:101E100040F29372AFF2C431AFF2AC3001F084FA09
:101E2000A06B08B1002010BD012010BD10B504004A
:101E300007D140F2BA72AFF2E431AFF2CC3001F028
:101E400073FAA06BE16B884201D1012010BD002024
:101E500010BD10B5174B002253F832401CB1521C74
:101E60000A2AF9D310BD43F8321003EBC2014860CF
:101E700010BD10B500240F4A214602EBC1035B6878
:101E8000834202D152F8314002E0491C0A29F4D3BE
:101E9000204610BD10B5044601F052F9A06B20B1E8
:101EA000002401F067F9204610BD0124F9E7000085
:101EB00004ED00E0DC0700202DE9F041054601F0CB
:101EC0003FF9FE4EB068401CB0603068FC4F10B166
:101ED000706930B32BE03560B068012827D1002449
:101EE00004EB840007EB8000FFF779FB641C202CD7
:101EF000F6D3F448FFF773FBF2481430FFF76FFB9B
:101F0000F0482830FFF76BFBEE483C30FFF767FBEB
:101F1000EC485030FFF763FBEA4870631430B0635D
:101F200005E03068E96AC06A884200D83560706AA6
:101F30000121401C7062E86A3269814011433161BD
:101F400000EB800007EB8000291DFFF756FB01F036
:101F500011F9706900280CD03068E96AC06A8842BB
:101F600007D2D9494FF080500860BFF34F8FBFF3BD
:101F70006F8FBDE8F0812DE9FF5F8346DDE90E87B5
:101F8000994616468A46900000F084FF05001AD054
:101F90004C2000F07FFF040012D025630021CDE922
:101FA0000241CDE900874B4632465146584600F083
:101FB000ADFE2046FFF780FF012004B0BDE8F09F92
:101FC000284600F0D2FF4FF0FF30F6E770B5044628
:101FD00001F0B6F8B94D04B92C68201DFFF731FBAC
:101FE00058B9E06AB64A00EB800152F8211021B9D5
:101FF00001218140286988432861A06A18B104F151
:102000001800FFF71EFB686A401C6862286884425B
:1020100008D1AC48211D3C30FFF7EFFA6868401C3E
:10202000686007E0A868401EA860204600F0BFFE78
:1020300000F0B0FE01F09EF86869002812D0286810
:1020400084420FD1286B28B140F265429FA1A6A01F
:1020500001F06AF99C494FF080500860BFF34F8F40
:10206000BFF36F8F70BD2DE9F041944F0026386BA0
:1020700038B1B869401CB861F86900B10126304632
:1020800077E7FD686D1CFD6011D1786B006828B1A1
:1020900040F6D9128DA194A001F046F9786BB96B86
:1020A0007963B863386A401C386200F073FEB86A1E
:1020B000DFF80C82854209D3786B006880B1786BB9
:1020C000C068C468606885420DD2B8623868C06A6A
:1020D00000EB800158F821000128CDD90126CBE77B
:1020E0004FF0FF30F1E7201DFFF7ABFAA06A18B1FF
:1020F00004F11800FFF7A5FAE06A01213A6981406E
:102100001143396100EB800108EB8100211DFFF7CD
:1021100074FAE06A3968C96A8842CDD30126CBE7F0
:102120002DE9F047654D00242746286B28B94FF468
:10213000FD6266A16CA001F0F7F801F001F8286BD0
:10214000401E2863286BE0BBA8685E492831012641
:10215000B8B3DFF86C918846D8F80010E9B1D8F828
:102160000C00C46804F11800FFF76BFA201DFFF79C
:1021700068FAE06A2A6906FA00F11143296100EB66
:10218000800109EB8100211DFFF737FAE06A296819
:10219000C96A8842E0D3EE61DEE70CB100F0FAFDD7
:1021A000AC693CB1FFF75FFF00B1EE61641EF9D18D
:1021B0000020A861E86920B1434901273807086079
:1021C00000E003E0BFF34F8FBFF36F8F00F0D2FF4B
:1021D0003846BDE8F0872DE9F041384E0F460446F9
:1021E000F5683068001DFFF72CFA38B9306890F8B0
:1021F0002C1001208840316981433161601C08D175
:102200003FB13168BDE8F0412E485030091DFFF75D
:10221000F4B930682C44AC424460316805D2B06BEC
:10222000BDE8F041091DFFF7F4B9706B091DFFF718
:10223000F0F9B06A844200D2B4629AE61F48016B9A
:10224000491C016370472DE9F0410E4605004FF02F
:10225000000405D140F279421CA123A001F064F8EA
:102260002EB940F27A4219A11FA001F05DF8134F78
:10227000386B28B140F27B4214A11BA001F054F846
:10228000FFF7DCFFFA6828688119904202D988427A
:1022900002D804E0884201D8914200D90124296083
:1022A0001CB1881A0021FFF796FFFFF739FF0028BD
:1022B00026D105494FF0805008601DE078070020C6
:1022C0002C080020AC0A002004ED00E02E2E5C2E2D
:1022D0002E5C4672656552544F535C7372635C7436
:1022E00061736B732E6300004572726F723A2573CF
:1022F0002C25640D0A000000BFF34F8FBFF36F8FD2
:1023000037E610B5040014D0FE49096B39B140F22C
:10231000CF42AFF24801AFF2300001F005F8FFF70D
:102320008DFF00212046FFF756FFFFF7F9FE00283A
:1023300007D1F5494FF080500860BFF34F8FBFF3CE
:102340006F8F10BD70B5050007D140F2FB42AFF2B0
:102350008401AFF26C0000F0E7FFEA4E306885427E
:1023600001D1002070BD00F0EBFE6C6900F002FFAF
:10237000706B844202D0B06B844201D1022070BDE8
:10238000E248844204D1A86A0028F7D1032070BD36
:10239000DE481438844202D00CB1012070BD042004
:1023A00070BD10B5044600F0CBFE0CB9D5480468EA
:1023B000E46A00F0DFFE204610BD10B5044600F0D0
:1023C000FEFE5020EFF3118180F31188BFF34F8F91
:1023D000BFF36F8F0CB9CB480468E06A81F31188B2
:1023E00010BD2DE9F04100260D460446202908D3F2
:1023F0004FF4B062AFF22C11AFF2141000F094FF62
:102400001F2500F09DFEBF4F04B93C68E06AA8425A
:102410003BD03968854206D98C4207D03968C96AF1
:10242000A94202D902E08C4200D101268046E56231
:10243000A069002802DBC5F12000A061B44D08EBC3
:102440008800616905EB8000814215D1201DFFF7EE
:10245000F8F8012120B93A6901FA08F082433A619B
:10246000E06A3A6981401143396100EB800005EB75
:102470008000211DFFF7C1F83EB1A3494FF0805005
:102480000860BFF34F8FBFF36F8FBDE8F04100F0DE
:1024900071BE70B59B4D286B10B10120E86170BD15
:1024A0000020E86128699A4EB0FA80F0C0F11F0060
:1024B00000EB800456F8240038B940F6F622AFF25B
:1024C000F411AFF2DC1000F02FFF06EB840000F1F6
:1024D0000802416849684160914201D14968416000
:1024E000C868286070BD70B5044600F029FE854DAF
:1024F00004B92C68201DFFF7A4F858B9E06A844A93
:1025000000EB800152F8211021B901218140286996
:1025100088432861A06A18B104F11800FFF791F808
:10252000211D7A48FFF769F800F024FE686928B198
:1025300000F006FE00F02EFC00F01CFE286884422D
:1025400013D1686990B1286B38B140F25762AFF28D
:102550008421AFF26C2000F0E7FE6B494FF0805011
:102560000860BFF34F8FBFF36F8F70BD6748A968D6
:102570000068884202D10020286070BDBDE870402C
:1025800087E770B50025040007D140F28162AFF201
:10259000C421AFF2AC2000F0C7FE5C4960698842FC
:1025A00005D1A06A2839884201D000B90125284602
:1025B00070BD70B504002BD0524D2868844231D0D4
:1025C00000F0BEFD2046FFF7DCFFE8B1201DFFF75D
:1025D00038F8E06A01212A698140114329614C4998
:1025E00000EB800001EB8000211DFFF706F8E06A98
:1025F0002968C96A884207D343494FF08050086070
:10260000BFF34F8FBFF36F8FBDE8704000F0B2BDD6
:1026100040F2AB62AFF24C31AFF23430BDE8704003
:1026200000F082BE70BD2DE9F0410026040007D104
:1026300040F2E262AFF26C31AFF2543000F074FE5F
:1026400000F0BDFD5020EFF3118580F31188BFF33A
:102650004F8FBFF36F8F2046FFF793FFF0B1294FE5
:10266000386B20B1294804F11801283814E0E06AD9
:102670003968C96A884200D30126201DFEF7E1FFB0
:10268000E06A01213A69814011433961204900EB38
:10269000800001EB8000211DFEF7AFFF85F311885C
:1026A000304666E41A4E4FF08054174D00F089FB17
:1026B00030680128FAD92C60BFF34F8FBFF36F8FBA
:1026C000F4E71CB50F4800242C30CDE90040234628
:1026D000802210A11148FFF74EFC01280CD0401CAD
:1026E0002BD140F28472AFF21C41AFF2044002B031
:1026F000BDE8104000F018BE502080F31188BFF3F1
:102700004F8F0DE07807002004ED00E0FC0A002068
:102710002C08002049444C4500000000A526000874
:10272000BFF36F8FFF484FF0FF318162012141619C
:10273000C460BDE81C4000F0C1BC1CBD502080F34B
:102740001188BFF34F8FBFF36F8FF64900204861A8
:1027500000F0EABCF348C068704710B500F02FFDE8
:10276000F048C06810BDEF488068704710B510B1E0
:1027700004461CB10AE0EB480468FAE740F68C0214
:10278000AFF2B841AFF2A04000F0CEFD04F134004A
:1027900010BD70B50D46040007D140F60632AFF209
:1027A000D441AFF2BC4000F0BFFDDE4801682046D6
:1027B0001831FEF72EFF2846BDE8704001210AE5DA
:1027C0002DE9F04117460E46050007D140F61732B5
:1027D000AFF20851AFF2F04000F0A6FDD14C206BF3
:1027E00038B940F61B32AFF21C51AFF2045000F082
:1027F0009BFD216846F00040886121682846183119
:10280000FEF7FBFE3846BDE8F0410121E3E42DE987
:10281000F041C068C4683CB940F66132AFF254512F
:10282000AFF23C5000F080FD04F118000746FEF7BF
:1028300008FFBC4D286B012658B13946BA48FEF74F
:10284000DCFEE06A2968C96A884212D90120EE617B
:1028500016E4201DFEF7F5FEE06A2A6906FA00F18B
:1028600011432961B14900EB800001EB8000211D7B
:10287000E5E7002004E470B5AA4D06460C46286B37
:1028800038B940F69932AFF2BC51AFF2A45000F023
:102890004BFD44F000403060F4683CB940F6A13292
:1028A000AFF2D851AFF2C05000F03EFD3046FEF717
:1028B000C8FE201DFEF7C5FEE06A01262A6906FA59
:1028C00000F111432961994900EB800001EB800080
:1028D000211DFEF792FEE06A2968C96A884202D982
:1028E0000120EE6170BD002070BD10B5040007D15D
:1028F00040F6C132AFF22C61AFF2146000F014FD6B
:102900008848016A2160C068606010BD70B50D46DE
:10291000040007D140F6CB32AFF25061AFF238601D
:1029200000F002FD3DB940F6CC32AFF26061AFF28B
:10293000486000F0F9FC00F003FC7A4AD06829688E
:102940004B1C0FD02368126A934202D06268824205
:102950000AD96268801A884206D2081A286020467E
:10296000FFF7C3FF002400E0012400F003FC204631
:1029700070BD6C490120C86170476A48416919B14E
:10298000006B18B10020704701207047022070478B
:10299000644908680A688069D26A0968C2F120023D
:1029A0008A61704770B50C46064600F0C9FB5D4D64
:1029B0002868406C80B92968012081F848005CB122
:1029C00001212046FFF707FC59494FF0805008606D
:1029D000BFF34F8FBFF36F8F00F0CCFB00F0B0FB65
:1029E0002868446C002034B116B12968486402E0BC
:1029F0002A68611E5164296881F8480000F0BAFB1A
:102A0000204670BD2DE9F0411E4615468846074612
:102A100000F096FB434C206890F84800022814D040
:102A20002068416CB94341642168012081F8480065
:102A30005EB101213046FFF7CEFB3D494FF080509B
:102A40000860BFF34F8FBFF36F8F00F093FB00F070
:102A500077FB15B12068406C2860206890F848002A
:102A600001280DD02068416C21EA0801416401254C
:102A70002168002081F8480000F07CFB28463FE4F4
:102A80000025F5E72DE9F0411F4690460D4604006C
:102A90004FF0010607D141F2FD02AFF2D071AFF263
:102AA000B87000F041FC00F04BFB0FB1606C386077
:102AB00094F84800022184F84810B8F1050F0ED2AE
:102AC000DFE808F00D03060C0A00616C294301E001
:102AD000616C491C616402E0022803D0656401282E
:102AE00002D033E0002631E0201DFEF7AAFD0D4D97
:102AF000E06A01212A698140114329610B4900EBF9
:102B0000800001EB8000211DFEF777FDA06A38B13F
:102B100041F23512AFF64C01AFF6340000F004FC80
:102B2000E06A07E078070020D40A00202C08002083
:102B300004ED00E02968C96A884207D9B4494FF01A
:102B400080500860BFF34F8FBFF36F8F00F012FB10
:102B50003046A6E52DE9F0471F46DDF82090924665
:102B60000D4604004FF0010807D141F26812AFF69C
:102B7000A401AFF68C0000F0D7FB00F020FB502042
:102B8000EFF3118680F31188BFF34F8FBFF36F8F80
:102B90000FB1606C386094F84800022184F8481046
:102BA000BAF1050F0ED2DFE80AF00D03060C0A0099
:102BB000616C294301E0616C491C616402E00228F8
:102BC00003D06564012803D031E04FF000082EE007
:102BD000A06A38B141F2AF12AFF61011AFF6F800AB
:102BE00000F0A2FB8B4D286B012778B104F118018E
:102BF0008948FEF702FDE06A2968C96A884216D949
:102C0000B9F1000F12D0C9F8007010E0201DFEF7D6
:102C100018FDE06A2A6907FA00F11143296100EB07
:102C200080017E4800EB8100211DE2E7EF6186F321
:102C300011884046BDE8F0872DE9F0418846040040
:102C400007D141F2E312AFF67C11AFF6641000F049
:102C50006BFB00F0B4FA5020EFF3118780F311887A
:102C6000BFF34F8FBFF36F8F94F84800022184F8B1
:102C70004810616C491C616401282ED1A06A38B1EA
:102C800041F20922AFF6BC11AFF6A41000F04CFBE4
:102C9000604D286B012678B104F118015E48FEF7FB
:102CA000ACFCE06A2968C96A884216D9B8F1000FFD
:102CB00012D0C8F8006010E0201DFEF7C2FCE06AE8
:102CC0002A6906FA00F111432961544900EB80009A
:102CD00001EB8000211DE2E7EE6187F31188E0E45B
:102CE00010B558B1044600F02BFA94F848000228B9
:102CF00007D0002400F03EFA204610BD4548046885
:102D0000F1E7002084F848000124F3E72DE9F047BB
:102D10000E46DDE9098482466FF00301206B01EB6A
:102D200082010844089D20F007079946780705D0DE
:102D300040F22B323AA141A000F0F6FA002022180E
:102D4000315C82F83410315C11B1401C1028F6D38C
:102D5000002684F84360202D00D31F25201DE56246
:102D6000FEF748FC04F11800FEF744FC2461C5F1AD
:102D700020006462A061666484F848604A46514657
:102D8000384600F07EF92060B8F1000F01D0C8F895
:102D900000404FE71F48416B096829B1416BC96882
:102DA000C9684968816270474FF0FF31FAE710B592
:102DB0000446006B00F0D9F82046BDE8104000F052
:102DC000D4B870B5144E134D14361CE0FFF736FA24
:102DD000306820B10024FFF7A3F9A4B901E0012471
:102DE000F9E700F0ADF9F068C468201DFEF729FC92
:102DF000A868401EA8606868401E686000F0BAF9C4
:102E00002046FFF7D4FF68680028DFD170BD0000BE
:102E100004ED00E078070020D40A00202C080020F0
:102E20002E2E5C2E2E5C4672656552544F535C7399
:102E300072635C7461736B732E6300004572726F12
:102E4000723A25732C25640D0A00000030B57449D0
:102E500000E011460A688242FBD34B685C1884424A
:102E600003D1406818444860084643681C189442DF
:102E700009D16B4C103C2468A24209D052681A4414
:102E800042600A6812680260814200D0086030BD6A
:102E90000460F9E72DE9F04105460026FFF7CEF979
:102EA0005F4F103F386808B900F098F8F86805429D
:102EB0004ED1002D4CD0083568070BD005F0070027
:102EC000C0F108000544680704D0BF2255A15FA0E7
:102ED00000F02AFA002D3BD07868854238D8504956
:102EE0000846046801E0214604466068A84202D210
:102EF00020680028F7D13868B846844228D00E6888
:102F00002068086060680836401B10280ED96719D1
:102F1000780704D0EC2243A14CA000F005FA6068C9
:102F2000401B786038466560FFF790FF6168D8F80D
:102F300004004246401AC8F80400D8F80830984205
:102F400000D29060D8F80C0001430020C4E90001D1
:102F5000FFF7E6F8700705D04FF4967231A13BA059
:102F600000F0E2F93046BDE8F08170B500282BD0C2
:102F70002B4DA0F10804103D6068E968084205D1B6
:102F80004FF4A07227A131A000F0CEF9206828B13B
:102F900040F2411223A12DA000F0C6F96068E96853
:102FA000084211D02268002A0ED188436060FFF7E2
:102FB00045F960686968084468602046FFF746FF85
:102FC000BDE87040FFF7ACB870BD154810384068D8
:102FD0007047134810388068704770471F484FF497
:102FE0001041420706D0C01D1C4920F00700411ABD
:102FF000C1F510410A4A00230144C2E9000308391F
:10300000103A21F0070111604B600B600B1AC0E908
:10301000001393604FF000405360D0607047000091
:10302000C40700202E2E5C2E2E5C4672656552541D
:103030004F535C706F72745C4D656D4D616E675C73
:10304000686561705F342E63000000004572726F26
:10305000723A25732C25640D0A000000100B002025
:1030600069484068401C04D0F42268A171A000F0B7
:103070005BF9502080F31188BFF34F8FBFF36F8F40
:10308000FEE710B5031F4FF080741C601B1F21F07A
:1030900001011960191F6B4B0B60143940380A602D
:1030A00010BD69484FF47A710068B0FBF1F14FF040
:1030B000E020491E41610721016170471CB5634949
:1030C00008780190FF20087008788DF800009DF8BE
:1030D00000004D4A00F0500010700720906007E09B
:1030E0009068401E90609DF8000040008DF8000040
:1030F0009DF800000006F3D4107A000200F4E060AE
:103100009060019808705248016841F470010160B4
:10311000016841F070410160FFF7C3FF002050607B
:10312000FDF722F800201CBD37484068B0F57A7FD3
:1031300005D04FF4B57235A13EA000F0F5B8704748
:10314000502080F31188BFF34F8FBFF36F8F2E494C
:103150004868401C486001280BD13D481C38006875
:1031600010F0FF0F05D04FF4BD7228A131A000F080
:10317000DBB8704710B5244C606828B940F2811262
:1031800022A12CA000F0D0F86068401E606001D140
:1031900080F3118810BD10B5502080F31188BFF363
:1031A0004F8FBFF36F8FFEF75EFF20B128494FF0BE
:1031B00080501C390860002080F3118810BD10B5C4
:1031C000FDF708F8104C10280CD300F1E02090F81F
:1031D000F0032178884205D24FF42A720BA115A082
:1031E00000F0A2F81A4814380068A16800F4E06002
:1031F000884207D9BDE810404FF42E7203A10DA0FC
:1032000000F092B810BD0000CC0700202E2E5C2EDE
:103210002E5C4672656552544F535C706F72745CDD
:10322000525644535C41524D5F434D335C706F7254
:10323000742E63004572726F723A25732C25640DEB
:103240000A000000613000080000002000E400E0F7
:1032500020ED00E040EA01039B0703D009E008C924
:10326000121F08C0042AFAD203E011F8013B00F84B
:10327000013B521EF9D2704730B50B460146002083
:103280002022012409E021FA02F59D4205D303FA28
:1032900002F5491B04FA02F52844151EA2F10102A9
:1032A000F1DC30BD064C074D06E0E06840F001035C
:1032B00094E8070098471034AC42F6D3FCF73CFF83
:1032C000103B0008303B000870B58D1810F8014B1A
:1032D00014F0030201D110F8012B231106D110F8CC
:1032E000013B03E010F8016B01F8016B521EF9D1AC
:1032F000ABB110F8012B04F00C048A1A0C2C03D08B
:10330000A2EB84129B1C08E010F8014BA2EB0422F4
:10331000F8E712F8014B01F8014B5B1EF9D5A94201
:10332000D4D3002070BD00000FB4054B10B503A925
:10333000044A029800F018F810BC5DF814FB000075
:10334000D7100008D807002002E008C8121F08C1E3
:10335000002AFAD170477047002001E001C1121F16
:10336000002AFBD1704700002DE9FF4F8BB09A4631
:103370000F460546002606E025280BD052460D993B
:1033800090476D1C761C28780028F5D10FB0304688
:10339000BDE8F08F0024A0460122604900E004430C
:1033A00015F8013F203B02FA03F00842F7D12878D4
:1033B0002E2817D115F8010F44F004042A280ED046
:1033C0006FF02F022878A0F1300109290AD808EB04
:1033D000880102EB410100EB01086D1CF2E757F890
:1033E000048B6D1C287869283ED006DC0028CDD0DF
:1033F00063280BD0642804D136E0732810D07528D8
:103400004BD052460D999047761C85E017F8040B77
:103410008DF8000000208DF80100E946012003E04E
:1034200057F8049B4FF0FF3061074FF0000401D4C0
:103430000AE0641C44450DDA8442FADB19F80410F2
:103440000029F6D106E0641C8442FCDB19F8041064
:103450000029F8D1264404E019F8010B52460D99D1
:103460009047641EF8D257E001CF4FF00A0B0028B6
:1034700002DA40422D2102E0210504D52B218DF8EE
:103480002410012103E0E10705D02021F7E70DF129
:10349000200908910CE00021F9E701CF4FF00A0B59
:1034A000F9E75946FFF7E8FE01F1300209F8012D6E
:1034B0000028F6D1ADEB090000F1200B600701D424
:1034C0004FF00108D84502DDA8EB0B0000E000201A
:1034D0008046002406E009A85246005D0D999047F9
:1034E000641C761C08988442F5DB04E030205246C8
:1034F0000D999047761CB8F10001A8F10108F5DCA0
:1035000005E019F8010B52460D999047761CBBF166
:103510000001ABF1010BF4DC6D1C34E7092801005C
:10352000000000000000000000000000000000009B
:10353000000000F800000000000000333000000030
:1035400000100C06100C0600000000000000000037
:1035500040C07840C0784000043F04043F040400A9
:10356000007088FC08300000001820FF211E0000B9
:10357000F008F000E018000000211C031E211E00CE
:1035800000F00888700000001E2123241927211054
:1035900010160E00000000000000000000000000F7
:1035A000000000E01804020000000007182040009E
:1035B00000020418E000000000402018070000008E
:1035C000404080F0804040000202010F01020200F2
:1035D000000000F0000000000101011F01010100D6
:1035E000000000000000000080B07000000000003B
:1035F00000000000000000000001010101010101C4
:10360000000000000000000000303000000000005A
:10361000000000008060180400601806010000002F
:1036200000E010080810E000000F102020100F002C
:10363000001010F8000000000020203F20200000B3
:10364000007008080888700000302824222130000B
:1036500000300888884830000018202020110E0013
:103660000000C02010F8000000070424243F2400BC
:1036700000F80888880808000019212020110E0091
:1036800000E0108888180000000F112020110E00A3
:1036900000380808C83808000000003F000000009B
:1036A0000070880808887000001C222121221C005C
:1036B00000E010080810E0000000312222110F0085
:1036C000000000C0C000000000000030300000001A
:1036D000000000800000000000008060000000008A
:1036E00000008040201008000001020408102000A3
:1036F00040404040404040000404040404040400EE
:103700000008102040800000002010080402010082
:10371000007048080808F000000000303601000082
:10372000C030C828E810E0000718272423140B0035
:103730000000C038E0000000203C230202273820AF
:1037400008F8888888700000203F202020110E0093
:10375000C03008080808380007182020201008008A
:1037600008F808080810E000203F202020100F0073
:1037700008F88888E8081000203F2020232018003F
:1037800008F88888E8081000203F200003000000A7
:10379000C03008080838000007182020221E020048
:1037A00008F808000008F808203F210101213F2007
:1037B000000808F8080800000020203F2020000032
:1037C00000000808F8080800C08080807F00000022
:1037D00008F888C028180800203F2001263820005B
:1037E00008F8080000000000203F202020203000C2
:1037F00008F8F800F8F80800203F003F003F2000DC
:1038000008F830C00008F808203F200007183F00E3
:10381000E01008080810E0000F10202020100F0012
:1038200008F808080808F000203F21010101000005
:10383000E01008080810E0000F18242438504F004A
:1038400008F8888888887000203F2000030C30200A
:1038500000708808080838000038202121221C0048
:10386000180808F8080818000000203F2000000091
:1038700008F808000008F808001F202020201F007A
:103880000878880000C83808000007380E010000DA
:10389000F80800F80008F800033C0700073C0300A4
:1038A000081868808068180820302C03032C30200A
:1038B0000838C800C83808000000203F2000000079
:1038C00010080808C83808002038262120201800D1
:1038D000000000FE020202000000007F40404000A5
:1038E000000C30C000000000000000010638C000DD
:1038F00000020202FE000000004040407F00000085
:1039000000000402020204000000000000000000A9
:1039100000000000000000008080808080808080A7
:10392000000202040000000000000000000000008F
:1039300000008080808000000019242222223F2085
:1039400008F8008080000000003F112020110E00C8
:103950000000008080800000000E11202020110057
:10396000000000808088F800000E112020103F2009
:103970000000808080800000001F2222222213008D
:10398000008080F0888888180020203F20200000D8
:103990000000808080808000006B9494949360008D
:1039A00008F8008080800000203F210000203F2098
:1039B00000809898000000000020203F2020000098
:1039C000000000809898000000C08080807F000088
:1039D00008F8000080808000203F24022D30200065
:1039E000000808F8000000000020203F2020000010
:1039F0008080808080808000203F20003F20003F2A
:103A00008080008080800000203F210000203F2037
:103A10000000808080800000001F202020201F00E8
:103A2000808000808000000080FFA12020110E0017
:103A30000000008080808000000E112020A0FF8008
:103A4000808080008080800020203F2120000100B5
:103A5000000080808080800000332424242419000A
:103A6000008080E0808000000000001F2020000017
:103A70008080000000808000001F202020103F2058
:103A8000808080000080808000010E3008060100E8
:103A900080800080008080800F300C030C300F008D
:103AA00000808000808080000020312E0E312000B8
:103AB000808080000080808080818E7018060100E8
:103AC00000808080808080000021302C2221300006
:103AD00000000000807C020200000000003F404027
:103AE00000000000FF00000000000000FF000000D8
:103AF0000002027C800000000040403F0000000007
:103B000000060101020204040000000000000000A1
:103B1000303B000800000020DC070000C83200082D
:103B2000883E0008DC070020349700005833000866
:103B3000500600A24A040001600D010203040607BA
:103B4000080902040608106114E20001100CF800D4
:103B500000FF4020180F18680801100400001F1013
:103B6000102200007F21213F21217F0000106002F0
:103B70008C0000FC44444442C24342400004047EA2
:103B800001806025312740040000200152FF081009
:103B9000190080804020100C0300030C102040808E
:103BA00080004030119690909104100698141350A4
:103BB00030401101300644847E06050A300F008033
:103BC00060F807000474545556545474C22017FF0B
:103BD0000003010545857D050505010300000888F2
:103BE0004828180FE89D219F20040808090132FF8A
:103BF0000611B0317B100A0042E2524AC64240C070
:103C0000B0000F1F301F0828108C43201847804039
:103C10003F0001100A08049392969A92FA940710B2
:103C200013FA0202004040472424140CFF04042429
:103C300044241CE612FCB07104153020057F2824B2
:103C400023F21405212222222010092030AC6330F7
:103C50000000FE0E1322FE1F100A226722121240DD
:103C6000407F420100059E7F4040000111E7140C97
:103C700084649C40300FC80808281840140C0806BB
:103C800001824C201806010618C115102742CC05E8
:103C90002602092500100940201F20404F4442E31E
:103CA000134443E01137113B1805FF0808884124ED
:103CB00015000021211111090503FF030509111148
:103CC00021210042629A38045262C269113F080EF3
:103CD00080C444447F24242420000F40807F80142B
:103CE000060040424458B02C0640405048C61003DD
:103CF0007340440129E118070808E8292E287F1895
:103D000004C80C0B8529A010040949899951BF28C2
:103D10000D484AFA0AFE09F949A80000F0BC500A09
:103D200022110B04FF04091223222D100330085026
:103D30004844C3444850900C103F0040221A0242AD
:103D4000827F0202020A12600000033D41031C0A46
:103D500010901011161010D010EC032DCF0308098D
:103D60002240415E4040704E4180013F6053E282FC
:103D7000014EFE5104733F40015E784004340B2431
:103D8000242FE42424E42F2424C00C0C7F00FF11F2
:103D9000090719090749917F0003100B080889EEEC
:103DA00098007E42C2420310057E0000029E1E80E3
:103DB0003E043207C918107800201008FC23108830
:103DC0006704F40424548A141040300077808188FA
:103DD000B2848380E0001160E0B101051060300A18
:103DE0003E22E2223E001088573F1C0B00407E40DE
:103DF0003F22220001FE200417FE01AE1804FE003F
:103E0000FC371C08F2121AD61212F2800410043F7A
:103E1000003F82124F82200410204F50340AFE02CD
:103E20001222C202C23202602D7C052D61050408F7
:103E3000600C30000F3040F8210D3D2003093E603A
:103E40001D76051C0584E43C2732042F24E430064B
:103E50002604A12D020331650D40800305200120B9
:103E600009FCFC2424FCFD2726080410132404402C
:103E700070BF8F84CC5D752525755DCCF1054477C9
:083E800012AA016D1C030000F1
:0400000508000131BD
:00000001FF
